{
  "_format": "hh-sol-artifact-1",
  "contractName": "SignatureVerifier",
  "sourceName": "contracts/SignatureVerifier.sol",
  "abi": [
    {
      "inputs": [
        {
          "internalType": "address",
          "name": "signer",
          "type": "address"
        },
        {
          "internalType": "bytes",
          "name": "signature",
          "type": "bytes"
        },
        {
          "internalType": "bytes32",
          "name": "messageHash",
          "type": "bytes32"
        }
      ],
      "name": "verifyECDSA",
      "outputs": [
        {
          "internalType": "bool",
          "name": "",
          "type": "bool"
        }
      ],
      "stateMutability": "pure",
      "type": "function"
    },
    {
      "inputs": [
        {
          "internalType": "address",
          "name": "signer",
          "type": "address"
        },
        {
          "internalType": "bytes",
          "name": "signature",
          "type": "bytes"
        },
        {
          "internalType": "bytes32",
          "name": "messageHash",
          "type": "bytes32"
        }
      ],
      "name": "verifyRSA",
      "outputs": [
        {
          "internalType": "bool",
          "name": "",
          "type": "bool"
        }
      ],
      "stateMutability": "pure",
      "type": "function"
    },
    {
      "inputs": [
        {
          "internalType": "address",
          "name": "signer",
          "type": "address"
        },
        {
          "internalType": "bytes",
          "name": "signature",
          "type": "bytes"
        },
        {
          "internalType": "bytes32",
          "name": "messageHash",
          "type": "bytes32"
        }
      ],
      "name": "verifySchnorr",
      "outputs": [
        {
          "internalType": "bool",
          "name": "",
          "type": "bool"
        }
      ],
      "stateMutability": "pure",
      "type": "function"
    },
    {
      "inputs": [
        {
          "internalType": "address",
          "name": "signer",
          "type": "address"
        },
        {
          "internalType": "bytes",
          "name": "signature",
          "type": "bytes"
        },
        {
          "internalType": "bytes32",
          "name": "messageHash",
          "type": "bytes32"
        },
        {
          "internalType": "string",
          "name": "schemeType",
          "type": "string"
        }
      ],
      "name": "verifySignature",
      "outputs": [
        {
          "internalType": "bool",
          "name": "",
          "type": "bool"
        }
      ],
      "stateMutability": "view",
      "type": "function"
    }
  ],
  "bytecode": "0x608060405234801561001057600080fd5b50610885806100206000396000f3fe608060405234801561001057600080fd5b506004361061004c5760003560e01c80630961be7f146100515780630bc9444e14610081578063187798c5146100b1578063dcab185e146100e1575b600080fd5b61006b60048036038101906100669190610572565b610111565b60405161007891906105fc565b60405180910390f35b61009b600480360381019061009691906106b8565b610161565b6040516100a891906105fc565b60405180910390f35b6100cb60048036038101906100c69190610572565b610249565b6040516100d891906105fc565b60405180910390f35b6100fb60048036038101906100f69190610572565b610335565b60405161010891906105fc565b60405180910390f35b6000610100835114610126576000905061015a565b61045673ffffffffffffffffffffffffffffffffffffffff168473ffffffffffffffffffffffffffffffffffffffff161490505b9392505050565b6000808260405160200161017591906107c8565b6040516020818303038152906040528051906020012090507fac75a10e130d0f4ed84689c63c0069adff9123d68aa5a7a04b227160e00c10a881036101c7576101bf868686610249565b915050610241565b7f09e29ee5062316b0028a0f2a5fe2e76e75970db09ac40f536e5892fe0536a2898103610201576101f9868686610335565b915050610241565b7f42428ef880790484bab4a339d13df54cdc902d3805d1226e40aa88738480d210810361023b57610233868686610111565b915050610241565b60009150505b949350505050565b6000806000806041865114610264576000935050505061032e565b6020860151925060408601519150606086015160001a9050601b8160ff16141580156102945750601c8160ff1614155b156102a5576000935050505061032e565b6000600186838686604051600081526020016040526040516102ca949392919061080a565b6020604051602081039080840390855afa1580156102ec573d6000803e3d6000fd5b5050506020604051035190508773ffffffffffffffffffffffffffffffffffffffff168173ffffffffffffffffffffffffffffffffffffffff16149450505050505b9392505050565b60006040835114610349576000905061037d565b61012373ffffffffffffffffffffffffffffffffffffffff168473ffffffffffffffffffffffffffffffffffffffff161490505b9392505050565b6000604051905090565b600080fd5b600080fd5b600073ffffffffffffffffffffffffffffffffffffffff82169050919050565b60006103c382610398565b9050919050565b6103d3816103b8565b81146103de57600080fd5b50565b6000813590506103f0816103ca565b92915050565b600080fd5b600080fd5b6000601f19601f8301169050919050565b7f4e487b7100000000000000000000000000000000000000000000000000000000600052604160045260246000fd5b61044982610400565b810181811067ffffffffffffffff8211171561046857610467610411565b5b80604052505050565b600061047b610384565b90506104878282610440565b919050565b600067ffffffffffffffff8211156104a7576104a6610411565b5b6104b082610400565b9050602081019050919050565b82818337600083830152505050565b60006104df6104da8461048c565b610471565b9050828152602081018484840111156104fb576104fa6103fb565b5b6105068482856104bd565b509392505050565b600082601f830112610523576105226103f6565b5b81356105338482602086016104cc565b91505092915050565b6000819050919050565b61054f8161053c565b811461055a57600080fd5b50565b60008135905061056c81610546565b92915050565b60008060006060848603121561058b5761058a61038e565b5b6000610599868287016103e1565b935050602084013567ffffffffffffffff8111156105ba576105b9610393565b5b6105c68682870161050e565b92505060406105d78682870161055d565b9150509250925092565b60008115159050919050565b6105f6816105e1565b82525050565b600060208201905061061160008301846105ed565b92915050565b600067ffffffffffffffff82111561063257610631610411565b5b61063b82610400565b9050602081019050919050565b600061065b61065684610617565b610471565b905082815260208101848484011115610677576106766103fb565b5b6106828482856104bd565b509392505050565b600082601f83011261069f5761069e6103f6565b5b81356106af848260208601610648565b91505092915050565b600080600080608085870312156106d2576106d161038e565b5b60006106e0878288016103e1565b945050602085013567ffffffffffffffff81111561070157610700610393565b5b61070d8782880161050e565b935050604061071e8782880161055d565b925050606085013567ffffffffffffffff81111561073f5761073e610393565b5b61074b8782880161068a565b91505092959194509250565b600081519050919050565b600081905092915050565b60005b8381101561078b578082015181840152602081019050610770565b60008484015250505050565b60006107a282610757565b6107ac8185610762565b93506107bc81856020860161076d565b80840191505092915050565b60006107d48284610797565b915081905092915050565b6107e88161053c565b82525050565b600060ff82169050919050565b610804816107ee565b82525050565b600060808201905061081f60008301876107df565b61082c60208301866107fb565b61083960408301856107df565b61084660608301846107df565b9594505050505056fea2646970667358221220147f4698a09178fe62337006587e3e1e404c89539daa7d6445a5b9f2e21d1c2664736f6c63430008140033",
  "linkReferences": {},
  "deployedLinkReferences": {}
}